{
  "_format": "hh-sol-artifact-1",
  "contractName": "WavePortal",
  "sourceName": "contracts/WavePortal.sol",
  "abi": [
    {
      "inputs": [],
      "stateMutability": "payable",
      "type": "constructor"
    },
    {
      "anonymous": false,
      "inputs": [
        {
          "indexed": true,
          "internalType": "address",
          "name": "from",
          "type": "address"
        },
        {
          "indexed": false,
          "internalType": "uint256",
          "name": "timestamp",
          "type": "uint256"
        },
        {
          "indexed": false,
          "internalType": "string",
          "name": "message",
          "type": "string"
        },
        {
          "indexed": false,
          "internalType": "string",
          "name": "color",
          "type": "string"
        }
      ],
      "name": "NewWave",
      "type": "event"
    },
    {
      "inputs": [],
      "name": "getAllWaves",
      "outputs": [
        {
          "components": [
            {
              "internalType": "address",
              "name": "waver",
              "type": "address"
            },
            {
              "internalType": "string",
              "name": "message",
              "type": "string"
            },
            {
              "internalType": "string",
              "name": "color",
              "type": "string"
            },
            {
              "internalType": "uint256",
              "name": "timestamp",
              "type": "uint256"
            }
          ],
          "internalType": "struct WavePortal.Wave[]",
          "name": "",
          "type": "tuple[]"
        }
      ],
      "stateMutability": "view",
      "type": "function"
    },
    {
      "inputs": [],
      "name": "getTotalWaves",
      "outputs": [
        {
          "internalType": "uint256",
          "name": "",
          "type": "uint256"
        }
      ],
      "stateMutability": "view",
      "type": "function"
    },
    {
      "inputs": [],
      "name": "totalWaves",
      "outputs": [
        {
          "internalType": "uint256",
          "name": "",
          "type": "uint256"
        }
      ],
      "stateMutability": "view",
      "type": "function"
    },
    {
      "inputs": [
        {
          "internalType": "string",
          "name": "_message",
          "type": "string"
        },
        {
          "internalType": "string",
          "name": "_color",
          "type": "string"
        }
      ],
      "name": "wave",
      "outputs": [],
      "stateMutability": "nonpayable",
      "type": "function"
    },
    {
      "inputs": [
        {
          "internalType": "uint256",
          "name": "",
          "type": "uint256"
        }
      ],
      "name": "waves",
      "outputs": [
        {
          "internalType": "address",
          "name": "waver",
          "type": "address"
        },
        {
          "internalType": "string",
          "name": "message",
          "type": "string"
        },
        {
          "internalType": "string",
          "name": "color",
          "type": "string"
        },
        {
          "internalType": "uint256",
          "name": "timestamp",
          "type": "uint256"
        }
      ],
      "stateMutability": "view",
      "type": "function"
    }
  ],
  "bytecode": "0x60806040526200004f6040518060400160405280601481526020017f596f2c2069276d20776176696e672062726f732e0000000000000000000000008152506200005560201b620007421760201c565b620001e9565b620000f5816040516024016200006c919062000162565b6040516020818303038152906040527f41304fac000000000000000000000000000000000000000000000000000000007bffffffffffffffffffffffffffffffffffffffffffffffffffffffff19166020820180517bffffffffffffffffffffffffffffffffffffffffffffffffffffffff8381831617835250505050620000f860201b60201c565b50565b60008151905060006a636f6e736f6c652e6c6f679050602083016000808483855afa5050505050565b60006200012e8262000186565b6200013a818562000191565b93506200014c818560208601620001a2565b6200015781620001d8565b840191505092915050565b600060208201905081810360008301526200017e818462000121565b905092915050565b600081519050919050565b600082825260208201905092915050565b60005b83811015620001c2578082015181840152602081019050620001a5565b83811115620001d2576000848401525b50505050565b6000601f19601f8301169050919050565b61125780620001f96000396000f3fe608060405234801561001057600080fd5b50600436106100575760003560e01c8063291bcab31461005c578063518729591461007a5780639a2cdc0814610096578063bd43a908146100b4578063c781267a146100d2575b600080fd5b610064610105565b6040516100719190610e47565b60405180910390f35b610094600480360381019061008f9190610a5c565b61010b565b005b61009e6103a4565b6040516100ab9190610e47565b60405180910390f35b6100bc6103ef565b6040516100c99190610d63565b60405180910390f35b6100ec60048036038101906100e79190610ac8565b6105d2565b6040516100fc9493929190610d10565b60405180910390f35b60005481565b600160008082825461011d9190610f6e565b925050819055506101636040518060400160405280600d81526020017f2573206861732077617665642100000000000000000000000000000000000000815250336107db565b600160405180608001604052803373ffffffffffffffffffffffffffffffffffffffff16815260200184815260200183815260200142815250908060018154018082558091505060019003906000526020600020906004020160009091909190915060008201518160000160006101000a81548173ffffffffffffffffffffffffffffffffffffffff021916908373ffffffffffffffffffffffffffffffffffffffff160217905550602082015181600101908051906020019061022892919061093c565b50604082015181600201908051906020019061024592919061093c565b506060820151816003015550503373ffffffffffffffffffffffffffffffffffffffff167f0646f10b0148fe8db9a43af10b6956b53e1478c47afc7132c17e243449dfd33942848460405161029c93929190610e62565b60405180910390a26000655af3107a40009050478111156102f2576040517f08c379a00000000000000000000000000000000000000000000000000000000081526004016102e990610e27565b60405180910390fd5b60003373ffffffffffffffffffffffffffffffffffffffff168260405161031890610cfb565b60006040518083038185875af1925050503d8060008114610355576040519150601f19603f3d011682016040523d82523d6000602084013e61035a565b606091505b505090508061039e576040517f08c379a000000000000000000000000000000000000000000000000000000000815260040161039590610e07565b60405180910390fd5b50505050565b60006103e76040518060400160405280601781526020017f5765206861766520256420746f74616c20776176657321000000000000000000815250600054610877565b600054905090565b60606001805480602002602001604051908101604052809291908181526020016000905b828210156105c957838290600052602060002090600402016040518060800160405290816000820160009054906101000a900473ffffffffffffffffffffffffffffffffffffffff1673ffffffffffffffffffffffffffffffffffffffff1673ffffffffffffffffffffffffffffffffffffffff16815260200160018201805461049c90611042565b80601f01602080910402602001604051908101604052809291908181526020018280546104c890611042565b80156105155780601f106104ea57610100808354040283529160200191610515565b820191906000526020600020905b8154815290600101906020018083116104f857829003601f168201915b5050505050815260200160028201805461052e90611042565b80601f016020809104026020016040519081016040528092919081815260200182805461055a90611042565b80156105a75780601f1061057c576101008083540402835291602001916105a7565b820191906000526020600020905b81548152906001019060200180831161058a57829003601f168201915b5050505050815260200160038201548152505081526020019060010190610413565b50505050905090565b600181815481106105e257600080fd5b90600052602060002090600402016000915090508060000160009054906101000a900473ffffffffffffffffffffffffffffffffffffffff169080600101805461062b90611042565b80601f016020809104026020016040519081016040528092919081815260200182805461065790611042565b80156106a45780601f10610679576101008083540402835291602001916106a4565b820191906000526020600020905b81548152906001019060200180831161068757829003601f168201915b5050505050908060020180546106b990611042565b80601f01602080910402602001604051908101604052809291908181526020018280546106e590611042565b80156107325780601f1061070757610100808354040283529160200191610732565b820191906000526020600020905b81548152906001019060200180831161071557829003601f168201915b5050505050908060030154905084565b6107d8816040516024016107569190610d85565b6040516020818303038152906040527f41304fac000000000000000000000000000000000000000000000000000000007bffffffffffffffffffffffffffffffffffffffffffffffffffffffff19166020820180517bffffffffffffffffffffffffffffffffffffffffffffffffffffffff8381831617835250505050610913565b50565b61087382826040516024016107f1929190610da7565b6040516020818303038152906040527f319af333000000000000000000000000000000000000000000000000000000007bffffffffffffffffffffffffffffffffffffffffffffffffffffffff19166020820180517bffffffffffffffffffffffffffffffffffffffffffffffffffffffff8381831617835250505050610913565b5050565b61090f828260405160240161088d929190610dd7565b6040516020818303038152906040527f9710a9d0000000000000000000000000000000000000000000000000000000007bffffffffffffffffffffffffffffffffffffffffffffffffffffffff19166020820180517bffffffffffffffffffffffffffffffffffffffffffffffffffffffff8381831617835250505050610913565b5050565b60008151905060006a636f6e736f6c652e6c6f679050602083016000808483855afa5050505050565b82805461094890611042565b90600052602060002090601f01602090048101928261096a57600085556109b1565b82601f1061098357805160ff19168380011785556109b1565b828001600101855582156109b1579182015b828111156109b0578251825591602001919060010190610995565b5b5090506109be91906109c2565b5090565b5b808211156109db5760008160009055506001016109c3565b5090565b60006109f26109ed84610ecc565b610ea7565b905082815260208101848484011115610a0a57600080fd5b610a15848285611000565b509392505050565b600082601f830112610a2e57600080fd5b8135610a3e8482602086016109df565b91505092915050565b600081359050610a568161120a565b92915050565b60008060408385031215610a6f57600080fd5b600083013567ffffffffffffffff811115610a8957600080fd5b610a9585828601610a1d565b925050602083013567ffffffffffffffff811115610ab257600080fd5b610abe85828601610a1d565b9150509250929050565b600060208284031215610ada57600080fd5b6000610ae884828501610a47565b91505092915050565b6000610afd8383610c73565b905092915050565b610b0e81610fc4565b82525050565b610b1d81610fc4565b82525050565b6000610b2e82610f0d565b610b388185610f30565b935083602082028501610b4a85610efd565b8060005b85811015610b865784840389528151610b678582610af1565b9450610b7283610f23565b925060208a01995050600181019050610b4e565b50829750879550505050505092915050565b6000610ba382610f18565b610bad8185610f4c565b9350610bbd81856020860161100f565b610bc681611132565b840191505092915050565b6000610bdc82610f18565b610be68185610f5d565b9350610bf681856020860161100f565b610bff81611132565b840191505092915050565b6000610c17602783610f5d565b9150610c2282611143565b604082019050919050565b6000610c3a600083610f41565b9150610c4582611192565b600082019050919050565b6000610c5d604183610f5d565b9150610c6882611195565b606082019050919050565b6000608083016000830151610c8b6000860182610b05565b5060208301518482036020860152610ca38282610b98565b91505060408301518482036040860152610cbd8282610b98565b9150506060830151610cd26060860182610cdd565b508091505092915050565b610ce681610ff6565b82525050565b610cf581610ff6565b82525050565b6000610d0682610c2d565b9150819050919050565b6000608082019050610d256000830187610b14565b8181036020830152610d378186610bd1565b90508181036040830152610d4b8185610bd1565b9050610d5a6060830184610cec565b95945050505050565b60006020820190508181036000830152610d7d8184610b23565b905092915050565b60006020820190508181036000830152610d9f8184610bd1565b905092915050565b60006040820190508181036000830152610dc18185610bd1565b9050610dd06020830184610b14565b9392505050565b60006040820190508181036000830152610df18185610bd1565b9050610e006020830184610cec565b9392505050565b60006020820190508181036000830152610e2081610c0a565b9050919050565b60006020820190508181036000830152610e4081610c50565b9050919050565b6000602082019050610e5c6000830184610cec565b92915050565b6000606082019050610e776000830186610cec565b8181036020830152610e898185610bd1565b90508181036040830152610e9d8184610bd1565b9050949350505050565b6000610eb1610ec2565b9050610ebd8282611074565b919050565b6000604051905090565b600067ffffffffffffffff821115610ee757610ee6611103565b5b610ef082611132565b9050602081019050919050565b6000819050602082019050919050565b600081519050919050565b600081519050919050565b6000602082019050919050565b600082825260208201905092915050565b600081905092915050565b600082825260208201905092915050565b600082825260208201905092915050565b6000610f7982610ff6565b9150610f8483610ff6565b9250827fffffffffffffffffffffffffffffffffffffffffffffffffffffffffffffffff03821115610fb957610fb86110a5565b5b828201905092915050565b6000610fcf82610fd6565b9050919050565b600073ffffffffffffffffffffffffffffffffffffffff82169050919050565b6000819050919050565b82818337600083830152505050565b60005b8381101561102d578082015181840152602081019050611012565b8381111561103c576000848401525b50505050565b6000600282049050600182168061105a57607f821691505b6020821081141561106e5761106d6110d4565b5b50919050565b61107d82611132565b810181811067ffffffffffffffff8211171561109c5761109b611103565b5b80604052505050565b7f4e487b7100000000000000000000000000000000000000000000000000000000600052601160045260246000fd5b7f4e487b7100000000000000000000000000000000000000000000000000000000600052602260045260246000fd5b7f4e487b7100000000000000000000000000000000000000000000000000000000600052604160045260246000fd5b6000601f19601f8301169050919050565b7f4661696c656420746f207769746864726177206d6f6e65792066726f6d20636f60008201527f6e74726163742e00000000000000000000000000000000000000000000000000602082015250565b50565b7f596f75277265206e6f7420616c6c6f77656420746f207769746864726177206d60008201527f6f7265206d6f6e6579207468616e207468697320636f6e74726163742068617360208201527f2e00000000000000000000000000000000000000000000000000000000000000604082015250565b61121381610ff6565b811461121e57600080fd5b5056fea264697066735822122025893585d1299c045b6dab162091769ed1618e4bc335fdee34567445f12019fa64736f6c63430008040033",
  "linkReferences": {},
  "deployedLinkReferences": {}
}