{
  "_format": "hh-sol-artifact-1",
  "contractName": "WavePortal",
  "sourceName": "contracts/WavePortal.sol",
  "abi": [
    {
      "inputs": [],
      "stateMutability": "nonpayable",
      "type": "constructor"
    },
    {
      "inputs": [],
      "name": "getTotalWavedAddresses",
      "outputs": [
        {
          "internalType": "address[]",
          "name": "",
          "type": "address[]"
        }
      ],
      "stateMutability": "view",
      "type": "function"
    },
    {
      "inputs": [],
      "name": "getTotalWaves",
      "outputs": [
        {
          "internalType": "uint256",
          "name": "",
          "type": "uint256"
        }
      ],
      "stateMutability": "view",
      "type": "function"
    },
    {
      "inputs": [],
      "name": "totalWaves",
      "outputs": [
        {
          "internalType": "uint256",
          "name": "",
          "type": "uint256"
        }
      ],
      "stateMutability": "view",
      "type": "function"
    },
    {
      "inputs": [],
      "name": "wave",
      "outputs": [],
      "stateMutability": "nonpayable",
      "type": "function"
    }
  ],
  "bytecode": "0x608060405234801561001057600080fd5b506100596040518060400160405280601481526020017f596f2c2069276d20776176696e672062726f732e00000000000000000000000081525061005e60201b6102511760201c565b6101e1565b6100fa81604051602401610072919061015f565b6040516020818303038152906040527f41304fac000000000000000000000000000000000000000000000000000000007bffffffffffffffffffffffffffffffffffffffffffffffffffffffff19166020820180517bffffffffffffffffffffffffffffffffffffffffffffffffffffffff83818316178352505050506100fd60201b60201c565b50565b60008151905060006a636f6e736f6c652e6c6f679050602083016000808483855afa5050505050565b600061013182610181565b61013b818561018c565b935061014b81856020860161019d565b610154816101d0565b840191505092915050565b600060208201905081810360008301526101798184610126565b905092915050565b600081519050919050565b600082825260208201905092915050565b60005b838110156101bb5780820151818401526020810190506101a0565b838111156101ca576000848401525b50505050565b6000601f19601f8301169050919050565b610776806101f06000396000f3fe608060405234801561001057600080fd5b506004361061004c5760003560e01c8063291bcab3146100515780636fe15b441461006f578063896b08a1146100795780639a2cdc0814610097575b600080fd5b6100596100b5565b60405161006691906105cb565b60405180910390f35b6100776100bb565b005b610081610178565b60405161008e9190610527565b60405180910390f35b61009f610206565b6040516100ac91906105cb565b60405180910390f35b60005481565b60016000808282546100cd919061063b565b925050819055506001339080600181540180825580915050600190039060005260206000200160009091909190916101000a81548173ffffffffffffffffffffffffffffffffffffffff021916908373ffffffffffffffffffffffffffffffffffffffff1602179055506101766040518060400160405280600d81526020017f2573206861732077617665642100000000000000000000000000000000000000815250336102ea565b565b606060018054806020026020016040519081016040528092919081815260200182805480156101fc57602002820191906000526020600020905b8160009054906101000a900473ffffffffffffffffffffffffffffffffffffffff1673ffffffffffffffffffffffffffffffffffffffff16815260200190600101908083116101b2575b5050505050905090565b60006102496040518060400160405280601781526020017f5765206861766520256420746f74616c20776176657321000000000000000000815250600054610386565b600054905090565b6102e7816040516024016102659190610549565b6040516020818303038152906040527f41304fac000000000000000000000000000000000000000000000000000000007bffffffffffffffffffffffffffffffffffffffffffffffffffffffff19166020820180517bffffffffffffffffffffffffffffffffffffffffffffffffffffffff8381831617835250505050610422565b50565b610382828260405160240161030092919061056b565b6040516020818303038152906040527f319af333000000000000000000000000000000000000000000000000000000007bffffffffffffffffffffffffffffffffffffffffffffffffffffffff19166020820180517bffffffffffffffffffffffffffffffffffffffffffffffffffffffff8381831617835250505050610422565b5050565b61041e828260405160240161039c92919061059b565b6040516020818303038152906040527f9710a9d0000000000000000000000000000000000000000000000000000000007bffffffffffffffffffffffffffffffffffffffffffffffffffffffff19166020820180517bffffffffffffffffffffffffffffffffffffffffffffffffffffffff8381831617835250505050610422565b5050565b60008151905060006a636f6e736f6c652e6c6f679050602083016000808483855afa5050505050565b60006104578383610463565b60208301905092915050565b61046c81610691565b82525050565b61047b81610691565b82525050565b600061048c826105f6565b6104968185610619565b93506104a1836105e6565b8060005b838110156104d25781516104b9888261044b565b97506104c48361060c565b9250506001810190506104a5565b5085935050505092915050565b60006104ea82610601565b6104f4818561062a565b93506105048185602086016106cd565b61050d8161072f565b840191505092915050565b610521816106c3565b82525050565b600060208201905081810360008301526105418184610481565b905092915050565b6000602082019050818103600083015261056381846104df565b905092915050565b6000604082019050818103600083015261058581856104df565b90506105946020830184610472565b9392505050565b600060408201905081810360008301526105b581856104df565b90506105c46020830184610518565b9392505050565b60006020820190506105e06000830184610518565b92915050565b6000819050602082019050919050565b600081519050919050565b600081519050919050565b6000602082019050919050565b600082825260208201905092915050565b600082825260208201905092915050565b6000610646826106c3565b9150610651836106c3565b9250827fffffffffffffffffffffffffffffffffffffffffffffffffffffffffffffffff0382111561068657610685610700565b5b828201905092915050565b600061069c826106a3565b9050919050565b600073ffffffffffffffffffffffffffffffffffffffff82169050919050565b6000819050919050565b60005b838110156106eb5780820151818401526020810190506106d0565b838111156106fa576000848401525b50505050565b7f4e487b7100000000000000000000000000000000000000000000000000000000600052601160045260246000fd5b6000601f19601f830116905091905056fea26469706673582212206f381e8673d4d90713a2ba525d4d40431f046f4f422662df334485872feb975b64736f6c63430008040033",
  "linkReferences": {},
  "deployedLinkReferences": {}
}