{
  "_format": "hh-sol-artifact-1",
  "contractName": "WavePortal",
  "sourceName": "contracts/WavePortal.sol",
  "abi": [
    {
      "inputs": [],
      "stateMutability": "payable",
      "type": "constructor"
    },
    {
      "anonymous": false,
      "inputs": [
        {
          "indexed": true,
          "internalType": "address",
          "name": "from",
          "type": "address"
        },
        {
          "indexed": false,
          "internalType": "uint256",
          "name": "timestamp",
          "type": "uint256"
        },
        {
          "indexed": false,
          "internalType": "string",
          "name": "message",
          "type": "string"
        },
        {
          "indexed": false,
          "internalType": "string",
          "name": "color",
          "type": "string"
        }
      ],
      "name": "NewWave",
      "type": "event"
    },
    {
      "inputs": [],
      "name": "getAllWaves",
      "outputs": [
        {
          "components": [
            {
              "internalType": "address",
              "name": "waver",
              "type": "address"
            },
            {
              "internalType": "string",
              "name": "message",
              "type": "string"
            },
            {
              "internalType": "string",
              "name": "color",
              "type": "string"
            },
            {
              "internalType": "uint256",
              "name": "timestamp",
              "type": "uint256"
            }
          ],
          "internalType": "struct WavePortal.Wave[]",
          "name": "",
          "type": "tuple[]"
        }
      ],
      "stateMutability": "view",
      "type": "function"
    },
    {
      "inputs": [],
      "name": "getTotalWaves",
      "outputs": [
        {
          "internalType": "uint256",
          "name": "",
          "type": "uint256"
        }
      ],
      "stateMutability": "view",
      "type": "function"
    },
    {
      "inputs": [
        {
          "internalType": "address",
          "name": "",
          "type": "address"
        }
      ],
      "name": "lastWavedAt",
      "outputs": [
        {
          "internalType": "uint256",
          "name": "",
          "type": "uint256"
        }
      ],
      "stateMutability": "view",
      "type": "function"
    },
    {
      "inputs": [],
      "name": "totalWaves",
      "outputs": [
        {
          "internalType": "uint256",
          "name": "",
          "type": "uint256"
        }
      ],
      "stateMutability": "view",
      "type": "function"
    },
    {
      "inputs": [
        {
          "internalType": "string",
          "name": "_message",
          "type": "string"
        },
        {
          "internalType": "string",
          "name": "_color",
          "type": "string"
        }
      ],
      "name": "wave",
      "outputs": [],
      "stateMutability": "nonpayable",
      "type": "function"
    },
    {
      "inputs": [
        {
          "internalType": "uint256",
          "name": "",
          "type": "uint256"
        }
      ],
      "name": "waves",
      "outputs": [
        {
          "internalType": "address",
          "name": "waver",
          "type": "address"
        },
        {
          "internalType": "string",
          "name": "message",
          "type": "string"
        },
        {
          "internalType": "string",
          "name": "color",
          "type": "string"
        },
        {
          "internalType": "uint256",
          "name": "timestamp",
          "type": "uint256"
        }
      ],
      "stateMutability": "view",
      "type": "function"
    }
  ],
  "bytecode": "0x60806040526200004f6040518060400160405280601481526020017f596f2c2069276d20776176696e672062726f732e0000000000000000000000008152506200007760201b620008f71760201c565b606444426200005f9190620001c4565b6200006b919062000261565b60018190555062000308565b62000117816040516024016200008e919062000184565b6040516020818303038152906040527f41304fac000000000000000000000000000000000000000000000000000000007bffffffffffffffffffffffffffffffffffffffffffffffffffffffff19166020820180517bffffffffffffffffffffffffffffffffffffffffffffffffffffffff83818316178352505050506200011a60201b60201c565b50565b60008151905060006a636f6e736f6c652e6c6f679050602083016000808483855afa5050505050565b60006200015082620001a8565b6200015c8185620001b3565b93506200016e8185602086016200022b565b6200017981620002f7565b840191505092915050565b60006020820190508181036000830152620001a0818462000143565b905092915050565b600081519050919050565b600082825260208201905092915050565b6000620001d18262000221565b9150620001de8362000221565b9250827fffffffffffffffffffffffffffffffffffffffffffffffffffffffffffffffff0382111562000216576200021562000299565b5b828201905092915050565b6000819050919050565b60005b838110156200024b5780820151818401526020810190506200022e565b838111156200025b576000848401525b50505050565b60006200026e8262000221565b91506200027b8362000221565b9250826200028e576200028d620002c8565b5b828206905092915050565b7f4e487b7100000000000000000000000000000000000000000000000000000000600052601160045260246000fd5b7f4e487b7100000000000000000000000000000000000000000000000000000000600052601260045260246000fd5b6000601f19601f8301169050919050565b6115d080620003186000396000f3fe608060405234801561001057600080fd5b50600436106100625760003560e01c8063291bcab31461006757806351872959146100855780639a2cdc08146100a1578063a42a4663146100bf578063bd43a908146100ef578063c781267a1461010d575b600080fd5b61006f610140565b60405161007c919061115a565b60405180910390f35b61009f600480360381019061009a9190610cee565b610146565b005b6100a9610541565b6040516100b6919061115a565b60405180910390f35b6100d960048036038101906100d49190610cc5565b61058c565b6040516100e6919061115a565b60405180910390f35b6100f76105a4565b6040516101049190611018565b60405180910390f35b61012760048036038101906101229190610d5a565b610787565b6040516101379493929190610fc5565b60405180910390f35b60005481565b42603c600360003373ffffffffffffffffffffffffffffffffffffffff1673ffffffffffffffffffffffffffffffffffffffff168152602001908152602001600020546101939190611281565b106101d3576040517f08c379a00000000000000000000000000000000000000000000000000000000081526004016101ca906110fa565b60405180910390fd5b42600360003373ffffffffffffffffffffffffffffffffffffffff1673ffffffffffffffffffffffffffffffffffffffff1681526020019081526020016000208190555060016000808282546102299190611281565b9250508190555061026f6040518060400160405280600d81526020017f257320686173207761766564210000000000000000000000000000000000000081525033610990565b600260405180608001604052803373ffffffffffffffffffffffffffffffffffffffff16815260200184815260200183815260200142815250908060018154018082558091505060019003906000526020600020906004020160009091909190915060008201518160000160006101000a81548173ffffffffffffffffffffffffffffffffffffffff021916908373ffffffffffffffffffffffffffffffffffffffff1602179055506020820151816001019080519060200190610334929190610b90565b506040820151816002019080519060200190610351929190610b90565b506060820151816003015550506032600154116104eb576103a76040518060400160405280600b81526020017f25732068617320776f6e2100000000000000000000000000000000000000000081525033610990565b6000655af3107a40009050478111156103f5576040517f08c379a00000000000000000000000000000000000000000000000000000000081526004016103ec9061113a565b60405180910390fd5b60003373ffffffffffffffffffffffffffffffffffffffff168260405161041b90610fb0565b60006040518083038185875af1925050503d8060008114610458576040519150601f19603f3d011682016040523d82523d6000602084013e61045d565b606091505b5050905080156104a8576104a76040518060400160405280601481526020017f25732068617320776f6e202573206574686572210000000000000000000000008152503384610a2c565b5b806104e8576040517f08c379a00000000000000000000000000000000000000000000000000000000081526004016104df9061111a565b60405180910390fd5b50505b3373ffffffffffffffffffffffffffffffffffffffff167f0646f10b0148fe8db9a43af10b6956b53e1478c47afc7132c17e243449dfd33942848460405161053593929190611175565b60405180910390a25050565b60006105846040518060400160405280601781526020017f5765206861766520256420746f74616c20776176657321000000000000000000815250600054610acb565b600054905090565b60036020528060005260406000206000915090505481565b60606002805480602002602001604051908101604052809291908181526020016000905b8282101561077e57838290600052602060002090600402016040518060800160405290816000820160009054906101000a900473ffffffffffffffffffffffffffffffffffffffff1673ffffffffffffffffffffffffffffffffffffffff1673ffffffffffffffffffffffffffffffffffffffff16815260200160018201805461065190611355565b80601f016020809104026020016040519081016040528092919081815260200182805461067d90611355565b80156106ca5780601f1061069f576101008083540402835291602001916106ca565b820191906000526020600020905b8154815290600101906020018083116106ad57829003601f168201915b505050505081526020016002820180546106e390611355565b80601f016020809104026020016040519081016040528092919081815260200182805461070f90611355565b801561075c5780601f106107315761010080835404028352916020019161075c565b820191906000526020600020905b81548152906001019060200180831161073f57829003601f168201915b50505050508152602001600382015481525050815260200190600101906105c8565b50505050905090565b6002818154811061079757600080fd5b90600052602060002090600402016000915090508060000160009054906101000a900473ffffffffffffffffffffffffffffffffffffffff16908060010180546107e090611355565b80601f016020809104026020016040519081016040528092919081815260200182805461080c90611355565b80156108595780601f1061082e57610100808354040283529160200191610859565b820191906000526020600020905b81548152906001019060200180831161083c57829003601f168201915b50505050509080600201805461086e90611355565b80601f016020809104026020016040519081016040528092919081815260200182805461089a90611355565b80156108e75780601f106108bc576101008083540402835291602001916108e7565b820191906000526020600020905b8154815290600101906020018083116108ca57829003601f168201915b5050505050908060030154905084565b61098d8160405160240161090b919061103a565b6040516020818303038152906040527f41304fac000000000000000000000000000000000000000000000000000000007bffffffffffffffffffffffffffffffffffffffffffffffffffffffff19166020820180517bffffffffffffffffffffffffffffffffffffffffffffffffffffffff8381831617835250505050610b67565b50565b610a2882826040516024016109a692919061105c565b6040516020818303038152906040527f319af333000000000000000000000000000000000000000000000000000000007bffffffffffffffffffffffffffffffffffffffffffffffffffffffff19166020820180517bffffffffffffffffffffffffffffffffffffffffffffffffffffffff8381831617835250505050610b67565b5050565b610ac6838383604051602401610a449392919061108c565b6040516020818303038152906040527f07c81217000000000000000000000000000000000000000000000000000000007bffffffffffffffffffffffffffffffffffffffffffffffffffffffff19166020820180517bffffffffffffffffffffffffffffffffffffffffffffffffffffffff8381831617835250505050610b67565b505050565b610b638282604051602401610ae19291906110ca565b6040516020818303038152906040527f9710a9d0000000000000000000000000000000000000000000000000000000007bffffffffffffffffffffffffffffffffffffffffffffffffffffffff19166020820180517bffffffffffffffffffffffffffffffffffffffffffffffffffffffff8381831617835250505050610b67565b5050565b60008151905060006a636f6e736f6c652e6c6f679050602083016000808483855afa5050505050565b828054610b9c90611355565b90600052602060002090601f016020900481019282610bbe5760008555610c05565b82601f10610bd757805160ff1916838001178555610c05565b82800160010185558215610c05579182015b82811115610c04578251825591602001919060010190610be9565b5b509050610c129190610c16565b5090565b5b80821115610c2f576000816000905550600101610c17565b5090565b6000610c46610c41846111df565b6111ba565b905082815260208101848484011115610c5e57600080fd5b610c69848285611313565b509392505050565b600081359050610c808161156c565b92915050565b600082601f830112610c9757600080fd5b8135610ca7848260208601610c33565b91505092915050565b600081359050610cbf81611583565b92915050565b600060208284031215610cd757600080fd5b6000610ce584828501610c71565b91505092915050565b60008060408385031215610d0157600080fd5b600083013567ffffffffffffffff811115610d1b57600080fd5b610d2785828601610c86565b925050602083013567ffffffffffffffff811115610d4457600080fd5b610d5085828601610c86565b9150509250929050565b600060208284031215610d6c57600080fd5b6000610d7a84828501610cb0565b91505092915050565b6000610d8f8383610f28565b905092915050565b610da0816112d7565b82525050565b610daf816112d7565b82525050565b6000610dc082611220565b610dca8185611243565b935083602082028501610ddc85611210565b8060005b85811015610e185784840389528151610df98582610d83565b9450610e0483611236565b925060208a01995050600181019050610de0565b50829750879550505050505092915050565b6000610e358261122b565b610e3f818561125f565b9350610e4f818560208601611322565b610e5881611445565b840191505092915050565b6000610e6e8261122b565b610e788185611270565b9350610e88818560208601611322565b610e9181611445565b840191505092915050565b6000610ea9602183611270565b9150610eb482611456565b604082019050919050565b6000610ecc602783611270565b9150610ed7826114a5565b604082019050919050565b6000610eef600083611254565b9150610efa826114f4565b600082019050919050565b6000610f12604183611270565b9150610f1d826114f7565b606082019050919050565b6000608083016000830151610f406000860182610d97565b5060208301518482036020860152610f588282610e2a565b91505060408301518482036040860152610f728282610e2a565b9150506060830151610f876060860182610f92565b508091505092915050565b610f9b81611309565b82525050565b610faa81611309565b82525050565b6000610fbb82610ee2565b9150819050919050565b6000608082019050610fda6000830187610da6565b8181036020830152610fec8186610e63565b905081810360408301526110008185610e63565b905061100f6060830184610fa1565b95945050505050565b600060208201905081810360008301526110328184610db5565b905092915050565b600060208201905081810360008301526110548184610e63565b905092915050565b600060408201905081810360008301526110768185610e63565b90506110856020830184610da6565b9392505050565b600060608201905081810360008301526110a68186610e63565b90506110b56020830185610da6565b6110c26040830184610fa1565b949350505050565b600060408201905081810360008301526110e48185610e63565b90506110f36020830184610fa1565b9392505050565b6000602082019050818103600083015261111381610e9c565b9050919050565b6000602082019050818103600083015261113381610ebf565b9050919050565b6000602082019050818103600083015261115381610f05565b9050919050565b600060208201905061116f6000830184610fa1565b92915050565b600060608201905061118a6000830186610fa1565b818103602083015261119c8185610e63565b905081810360408301526111b08184610e63565b9050949350505050565b60006111c46111d5565b90506111d08282611387565b919050565b6000604051905090565b600067ffffffffffffffff8211156111fa576111f9611416565b5b61120382611445565b9050602081019050919050565b6000819050602082019050919050565b600081519050919050565b600081519050919050565b6000602082019050919050565b600082825260208201905092915050565b600081905092915050565b600082825260208201905092915050565b600082825260208201905092915050565b600061128c82611309565b915061129783611309565b9250827fffffffffffffffffffffffffffffffffffffffffffffffffffffffffffffffff038211156112cc576112cb6113b8565b5b828201905092915050565b60006112e2826112e9565b9050919050565b600073ffffffffffffffffffffffffffffffffffffffff82169050919050565b6000819050919050565b82818337600083830152505050565b60005b83811015611340578082015181840152602081019050611325565b8381111561134f576000848401525b50505050565b6000600282049050600182168061136d57607f821691505b60208210811415611381576113806113e7565b5b50919050565b61139082611445565b810181811067ffffffffffffffff821117156113af576113ae611416565b5b80604052505050565b7f4e487b7100000000000000000000000000000000000000000000000000000000600052601160045260246000fd5b7f4e487b7100000000000000000000000000000000000000000000000000000000600052602260045260246000fd5b7f4e487b7100000000000000000000000000000000000000000000000000000000600052604160045260246000fd5b6000601f19601f8301169050919050565b7f596f752063616e2774207761766520746f6f206f6674656e2e2057616974203160008201527f6d00000000000000000000000000000000000000000000000000000000000000602082015250565b7f4661696c656420746f207769746864726177206d6f6e65792066726f6d20636f60008201527f6e74726163742e00000000000000000000000000000000000000000000000000602082015250565b50565b7f596f75277265206e6f7420616c6c6f77656420746f207769746864726177206d60008201527f6f7265206d6f6e6579207468616e207468697320636f6e74726163742068617360208201527f2e00000000000000000000000000000000000000000000000000000000000000604082015250565b611575816112d7565b811461158057600080fd5b50565b61158c81611309565b811461159757600080fd5b5056fea26469706673582212206dc497f706ea2060bdeb685b0ac84356307fcf80acdfe9f1cb27bde8b035ee9764736f6c63430008040033",
  "linkReferences": {},
  "deployedLinkReferences": {}
}